{
  "contractName": "BandApp",
  "abi": [
    {
      "inputs": [],
      "stateMutability": "nonpayable",
      "type": "constructor"
    },
    {
      "inputs": [],
      "name": "bandMgrIndex",
      "outputs": [
        {
          "internalType": "uint256",
          "name": "",
          "type": "uint256"
        }
      ],
      "stateMutability": "view",
      "type": "function",
      "constant": true
    },
    {
      "inputs": [
        {
          "internalType": "uint256",
          "name": "",
          "type": "uint256"
        }
      ],
      "name": "bandMgrs",
      "outputs": [
        {
          "internalType": "address",
          "name": "",
          "type": "address"
        }
      ],
      "stateMutability": "view",
      "type": "function",
      "constant": true
    },
    {
      "inputs": [],
      "name": "owner",
      "outputs": [
        {
          "internalType": "address",
          "name": "",
          "type": "address"
        }
      ],
      "stateMutability": "view",
      "type": "function",
      "constant": true
    },
    {
      "inputs": [],
      "name": "songIndex",
      "outputs": [
        {
          "internalType": "uint256",
          "name": "",
          "type": "uint256"
        }
      ],
      "stateMutability": "view",
      "type": "function",
      "constant": true
    },
    {
      "inputs": [
        {
          "internalType": "uint256",
          "name": "",
          "type": "uint256"
        }
      ],
      "name": "songs",
      "outputs": [
        {
          "internalType": "string",
          "name": "songname",
          "type": "string"
        },
        {
          "internalType": "uint256",
          "name": "price",
          "type": "uint256"
        },
        {
          "internalType": "address",
          "name": "seller",
          "type": "address"
        },
        {
          "internalType": "address",
          "name": "buyer",
          "type": "address"
        }
      ],
      "stateMutability": "view",
      "type": "function",
      "constant": true
    },
    {
      "inputs": [],
      "name": "stopped",
      "outputs": [
        {
          "internalType": "bool",
          "name": "",
          "type": "bool"
        }
      ],
      "stateMutability": "view",
      "type": "function",
      "constant": true
    },
    {
      "inputs": [
        {
          "internalType": "address",
          "name": "bandMgraddress",
          "type": "address"
        }
      ],
      "name": "addMgr",
      "outputs": [],
      "stateMutability": "nonpayable",
      "type": "function"
    },
    {
      "inputs": [
        {
          "internalType": "string",
          "name": "_songname",
          "type": "string"
        },
        {
          "internalType": "uint256",
          "name": "_price",
          "type": "uint256"
        }
      ],
      "name": "addSong",
      "outputs": [],
      "stateMutability": "nonpayable",
      "type": "function"
    },
    {
      "inputs": [
        {
          "internalType": "address payable",
          "name": "_seller",
          "type": "address"
        }
      ],
      "name": "buySong",
      "outputs": [],
      "stateMutability": "payable",
      "type": "function",
      "payable": true
    },
    {
      "inputs": [],
      "name": "circuitBreakerPressed",
      "outputs": [],
      "stateMutability": "nonpayable",
      "type": "function"
    }
  ],
  "bytecode": "0x6080604052600060015560006002556000600560006101000a81548160ff02191690831515021790555034801561003557600080fd5b5033600360006101000a81548173ffffffffffffffffffffffffffffffffffffffff021916908373ffffffffffffffffffffffffffffffffffffffff160217905550610930806100866000396000f3fe6080604052600436106100915760003560e01c80638da5cb5b116100595780638da5cb5b146102f2578063f179469214610333578063f53c3c9c14610377578063fc7f3421146103dc578063fd0ec0961461040757610091565b80630f110530146100965780632fc872cd14610168578063304cff30146101b957806333f6203b146102ae57806375f12b21146102c5575b600080fd5b3480156100a257600080fd5b50610166600480360360408110156100b957600080fd5b81019080803590602001906401000000008111156100d657600080fd5b8201836020820111156100e857600080fd5b8035906020019184600183028401116401000000008311171561010a57600080fd5b91908080601f016020809104026020016040519081016040528093929190818152602001838380828437600081840152601f19601f82011690508083019250505050505050919291929080359060200190929190505050610432565b005b34801561017457600080fd5b506101b76004803603602081101561018b57600080fd5b81019080803573ffffffffffffffffffffffffffffffffffffffff169060200190929190505050610563565b005b3480156101c557600080fd5b506101f2600480360360208110156101dc57600080fd5b810190808035906020019092919050505061062e565b60405180806020018581526020018473ffffffffffffffffffffffffffffffffffffffff1681526020018373ffffffffffffffffffffffffffffffffffffffff168152602001828103825286818151815260200191508051906020019080838360005b83811015610270578082015181840152602081019050610255565b50505050905090810190601f16801561029d5780820380516001836020036101000a031916815260200191505b509550505050505060405180910390f35b3480156102ba57600080fd5b506102c3610736565b005b3480156102d157600080fd5b506102da610762565b60405180821515815260200191505060405180910390f35b3480156102fe57600080fd5b50610307610775565b604051808273ffffffffffffffffffffffffffffffffffffffff16815260200191505060405180910390f35b6103756004803603602081101561034957600080fd5b81019080803573ffffffffffffffffffffffffffffffffffffffff16906020019092919050505061079b565b005b34801561038357600080fd5b506103b06004803603602081101561039a57600080fd5b81019080803590602001909291905050506107ff565b604051808273ffffffffffffffffffffffffffffffffffffffff16815260200191505060405180910390f35b3480156103e857600080fd5b506103f1610832565b6040518082815260200191505060405180910390f35b34801561041357600080fd5b5061041c610838565b6040518082815260200191505060405180910390f35b60405180608001604052808381526020018281526020013373ffffffffffffffffffffffffffffffffffffffff168152602001600073ffffffffffffffffffffffffffffffffffffffff1681525060046000600254815260200190815260200160002060008201518160000190805190602001906104b192919061085d565b506020820151816001015560408201518160020160006101000a81548173ffffffffffffffffffffffffffffffffffffffff021916908373ffffffffffffffffffffffffffffffffffffffff16021790555060608201518160030160006101000a81548173ffffffffffffffffffffffffffffffffffffffff021916908373ffffffffffffffffffffffffffffffffffffffff1602179055509050506002600081548092919060010191905055505050565b3373ffffffffffffffffffffffffffffffffffffffff16600360009054906101000a900473ffffffffffffffffffffffffffffffffffffffff1673ffffffffffffffffffffffffffffffffffffffff16146105bd57600080fd5b80600080600154815260200190815260200160002060006101000a81548173ffffffffffffffffffffffffffffffffffffffff021916908373ffffffffffffffffffffffffffffffffffffffff1602179055506106256001805461083e90919063ffffffff16565b60018190555050565b6004602052806000526040600020600091509050806000018054600181600116156101000203166002900480601f0160208091040260200160405190810160405280929190818152602001828054600181600116156101000203166002900480156106da5780601f106106af576101008083540402835291602001916106da565b820191906000526020600020905b8154815290600101906020018083116106bd57829003601f168201915b5050505050908060010154908060020160009054906101000a900473ffffffffffffffffffffffffffffffffffffffff16908060030160009054906101000a900473ffffffffffffffffffffffffffffffffffffffff16905084565b600560009054906101000a900460ff1615600560006101000a81548160ff021916908315150217905550565b600560009054906101000a900460ff1681565b600360009054906101000a900473ffffffffffffffffffffffffffffffffffffffff1681565b600560009054906101000a900460ff16156107b557600080fd5b8073ffffffffffffffffffffffffffffffffffffffff166108fc349081150290604051600060405180830381858888f193505050501580156107fb573d6000803e3d6000fd5b5050565b60006020528060005260406000206000915054906101000a900473ffffffffffffffffffffffffffffffffffffffff1681565b60015481565b60025481565b60008082840190508381101561085357600080fd5b8091505092915050565b828054600181600116156101000203166002900490600052602060002090601f016020900481019282601f1061089e57805160ff19168380011785556108cc565b828001600101855582156108cc579182015b828111156108cb5782518255916020019190600101906108b0565b5b5090506108d991906108dd565b5090565b5b808211156108f65760008160009055506001016108de565b509056fea2646970667358221220f3eb4ea3feacc22b861bdb73eb5176a22d9c1b62739972ca3b117c858eb0da8b64736f6c63430007030033",
  "immutableReferences": {},
  "source": "pragma solidity >=0.4.21 <0.8.0;\n\n// import \"https://github.com/OpenZeppelin/openzeppelin-contracts/blob/master/contracts/math/SafeMath.sol\";\nimport \"./SafeMath.sol\";\n\n/** @title Band Merchandise Web Store Application */\ncontract BandApp {\n    using SafeMath for uint256;\n\n    mapping (uint => address) public bandMgrs;\n    uint public bandMgrIndex = 0;\n    uint public songIndex = 0;\n    address public owner;\n\n    struct Song {\n    string songname;\n    uint price;\n    address seller;\n    address buyer;\n    }\n\n    mapping ( uint => Song) public songs;\n    bool public stopped = false;\n\n    modifier stopInEmergency { require(!stopped); _; }\n\n    //currently commented out to investigate other ways of verifying band manager without looping through an array\n    modifier isBandMgr { \n        \n        /* for (i=0;i<bandMgrIndex+1; i++){\n            if (msg.sender == bandMgrs[bandMgrIndex]){\n            found = 1\n            }\n            }\n        require(found>=1);\n        */\n        _;\n    }\n\n    constructor() public {\n        owner = msg.sender;\n    }\n\n    /**\n     * @dev Adds admin inputted address to bandMgrs mapping\n     * @param bandMgraddress Account address of band manager to be added\n     */\n    function addMgr (address bandMgraddress) public {\n        require(owner == msg.sender);\n        bandMgrs[bandMgrIndex] = bandMgraddress;\n        bandMgrIndex = bandMgrIndex.add(1);\n        //bandMgrIndex++;\n    }\n    \n    /**\n     * @dev Band manager input song name and song price into songs mapping\n     * @param _songname The name of the song being added by the band manager\n     * @param _price The purchase price of the song in ether\n     */\n    function addSong (string memory _songname, uint  _price) public {\n        songs[songIndex] = Song({songname: _songname, price: _price, seller: msg.sender, buyer: address(0x0) });\n        songIndex++;\n    }\n\n    /**\n     * @dev Function for when a visitor to the app purchases a song, but will not run if the admin pauses the contract in an emergency\n     * @param _seller Account address of the band manager who added the song being bought\n     */\n    function buySong (address payable _seller) stopInEmergency public payable {\n        _seller.transfer(msg.value);\n\n    }\n\n    /**\n     * @dev toggles the value of stopped if run\n     */\n    function circuitBreakerPressed () public {\n        stopped = !stopped;\n    }\n}",
  "sourcePath": "/workspace/truffle-box-react-final-project-1-12-19/contracts/BandApp.sol",
  "compiler": {
    "name": "solc",
    "version": "0.7.3+commit.9bfce1f6.Emscripten.clang"
  },
  "schemaVersion": "3.4.7",
  "updatedAt": "2022-06-10T19:49:37.597Z",
  "networkType": "ethereum",
  "devdoc": {
    "kind": "dev",
    "methods": {
      "addMgr(address)": {
        "details": "Adds admin inputted address to bandMgrs mapping",
        "params": {
          "bandMgraddress": "Account address of band manager to be added"
        }
      },
      "addSong(string,uint256)": {
        "details": "Band manager input song name and song price into songs mapping",
        "params": {
          "_price": "The purchase price of the song in ether",
          "_songname": "The name of the song being added by the band manager"
        }
      },
      "buySong(address)": {
        "details": "Function for when a visitor to the app purchases a song, but will not run if the admin pauses the contract in an emergency",
        "params": {
          "_seller": "Account address of the band manager who added the song being bought"
        }
      },
      "circuitBreakerPressed()": {
        "details": "toggles the value of stopped if run"
      }
    },
    "title": "Band Merchandise Web Store Application ",
    "version": 1
  },
  "userdoc": {
    "kind": "user",
    "methods": {},
    "version": 1
  }
}